:100000000C945D000C9485000C9485000C94850084
:100010000C9485000C9485000C9485000C9485004C
:100020000C9485000C9485000C9485000C9485003C
:100030000C9485000C9485000C9485000C9485002C
:100040000C942E030C9485000C949E030C9478035E
:100050000C9485000C9485000C9485000C9485000C
:100060000C9485000C9485000000000024002700FB
:100070002A0000000000250028002B0004040404CE
:100080000404040402020202020203030303030342
:10009000010204081020408001020408102001021F
:1000A00004081020000000080002010000030407FB
:1000B0000000000000000000C00511241FBECFEFAB
:1000C000D8E0DEBFCDBF11E0A0E0B1E0E6E4F1E1B1
:1000D00002C005900D92AE33B107D9F722E0AEE32E
:1000E000B1E001C01D92A432B207E1F710E0CDE506
:1000F000D0E004C02197FE010E949208CC35D107C0
:10010000C9F70E94D0030C94A1080C940000ECEAFB
:10011000F0E02491E8E9F0E09491E4E8F0E0E49183
:10012000EE23C9F0222339F0233001F1A8F4213065
:1001300019F1223029F1F0E0EE0FFF1FEE58FF4FCA
:10014000A591B4912FB7F894EC91811126C09095A8
:100150009E239C932FBF08952730A9F02830C9F023
:10016000243049F7209180002F7D03C0209180002A
:100170002F7720938000DFCF24B52F7724BDDBCFEE
:1001800024B52F7DFBCF2091B0002F772093B000B6
:10019000D2CF2091B0002F7DF9CF9E2BDACF80E413
:1001A00080937C0080917A00806480937A008091B3
:1001B0007A0086FDFCCF80917800909179000895B7
:1001C000AF92BF92CF92DF92EF92FF920F931F9365
:1001D000CF93DF936C017B018B01040F151FEB01A3
:1001E0005E01AE18BF08C017D10759F06991D6015A
:1001F000ED91FC910190F081E02DC6010995892BCC
:1002000079F7C501DF91CF911F910F91FF90EF908A
:10021000DF90CF90BF90AF900895FC01538D448D37
:10022000252F30E0842F90E0821B930B541710F0A1
:10023000CF96089501970895FC01918D828D9817AE
:1002400061F0A28DAE0FBF2FB11D5D968C91928D86
:100250009F5F9F73928F90E008958FEF9FEF0895B7
:10026000FC01918D828D981731F0828DE80FF11D80
:10027000858D90E008958FEF9FEF0895FC01918D9B
:10028000228D892F90E0805C9F4F821B91098F7394
:100290009927089587E891E00E943E0121E0892B8B
:1002A00009F420E0822F089580E090E0892B29F066
:1002B0000E944A0181110C9400000895FC01A48D54
:1002C000A80FB92FB11DA35ABF4F2C91848D90E078
:1002D00001968F739927848FA689B7892C93A0895B
:1002E000B1898C91837080648C93938D848D9813E5
:1002F00006C00288F389E02D80818F7D8083089578
:10030000EF92FF920F931F93CF93DF93EC0181E065
:10031000888F9B8D8C8D98131AC0E889F98980810C
:1003200085FF15C09FB7F894EE89FF896083E8893F
:10033000F98980818370806480839FBF81E090E031
:10034000DF91CF911F910F91FF90EF900895F62EBE
:100350000B8D10E00F5F1F4F0F731127E02E8C8D58
:100360008E110CC00FB607FCFACFE889F98980819D
:1003700085FFF5CFCE010E945E01F1CFEB8DEC0F32
:10038000FD2FF11DE35AFF4FF0829FB7F8940B8FBA
:10039000EA89FB8980818062CFCFCF93DF93EC0124
:1003A000888D8823B9F0AA89BB89E889F9898C915D
:1003B00085FD03C0808186FD0DC00FB607FCF7CF19
:1003C0008C9185FFF2CF808185FFEDCFCE010E9419
:1003D0005E01E9CFDF91CF9108952FB7F894809116
:1003E000830190918401A0918501B09186012FBF76
:1003F00080935F0190936001A0936101B0936201CB
:100400000895FC0101900020E9F73197AF01481BE6
:10041000590BBC0187E891E00C94E0008F929F9209
:10042000AF92BF920F931F93CF93DF93CDB7DEB7F9
:10043000A1970FB6F894DEBF0FBECDBF19A2423010
:1004400008F44AE08E010F5D1F4F842E912CB12CD1
:10045000A12CA50194010E943D08E62FB901CA0113
:10046000EA30F4F4E05DD801EE938D01232B242BC8
:10047000252B79F790E080E0109719F0CD010E94CC
:100480000102A1960FB6F894DEBF0FBECDBFDF917B
:10049000CF911F910F91BF90AF909F908F90089533
:1004A000E95CE1CF4F925F926F927F928F929F9221
:1004B000AF92BF92CF92DF92EF92FF920F931F9372
:1004C000CF936B017C01742EAC019B010E94240828
:1004D000882399F082E191E0CF911F910F91FF90D5
:1004E000EF90DF90CF90BF90AF909F908F907F90D4
:1004F0006F905F904F900C94010246015701E89471
:10050000B7F82FEF3FEF4FE75FE7C501B4010E9457
:10051000240881110DC02FEF3FEF4FE75FE7C501C2
:10052000B4010E945A0618161CF486E191E0D4CF5B
:100530002FEF3FEF4FE75FE4C701B6010E94B2071C
:1005400018161CF48AE191E0C7CF2FEF3FEF4FE779
:100550005FECC701B6010E945A0687FDF3CF20E089
:1005600030E0A901C701B6010E945A0610E000E080
:1005700087FF0AC06DE287E891E00E9480018C014C
:10058000F7FAF094F7F8F094C0E060E070E080E0F3
:100590009FE37C1641F020E030E040E251E40E940D
:1005A0005F06CF5FF6CFA70196010E94EE052B01F3
:1005B0003C010E94D1064B015C014AE00E940E0200
:1005C0007C01E00EF11ECC23C1F1C501B4010E94F3
:1005D00000079B01AC01C301B2010E94ED054B0174
:1005E0005C016EE287E891E00E948001E80EF91E4E
:1005F000C15018F120E030E040E251E4C501B401FF
:100600000E94B7072B013C010E94D1064B01B12C7F
:10061000A12C4AE0C501B4010E940E02E80EF91EA9
:10062000C501B4010E9400079B01AC01C301B201E6
:100630000E94ED054B015C01DBCFC701CF911F91FB
:100640000F91FF90EF90DF90CF90BF90AF909F9071
:100650008F907F906F905F904F9008951F920F92B0
:100660000FB60F9211242F933F938F939F93AF93C5
:10067000BF938091830190918401A0918501B091F5
:1006800086013091820123E0230F2D3758F5019622
:10069000A11DB11D20938201809383019093840159
:1006A000A0938501B093860180917E0190917F0196
:1006B000A0918001B09181010196A11DB11D80938F
:1006C0007E0190937F01A0938001B0938101BF913F
:1006D000AF919F918F913F912F910F900FBE0F90EF
:1006E0001F90189526E8230F0296A11DB11DD2CFA9
:1006F0001F920F920FB60F9211242F933F934F9397
:100700005F936F937F938F939F93AF93BF93EF9379
:10071000FF9387E891E00E945E01FF91EF91BF9106
:10072000AF919F918F917F916F915F914F913F9189
:100730002F910F900FBE0F901F9018951F920F9240
:100740000FB60F9211242F938F939F93EF93FF93E4
:10075000E0919701F09198018081E0919D01F091E5
:100760009E0182FD1BC090818091A0018F5F8F73DD
:100770002091A101821741F0E091A001F0E0E9573A
:10078000FE4F958F8093A001FF91EF919F918F91E4
:100790002F910F900FBE0F901F9018958081F4CF6E
:1007A000789484B5826084BD84B5816084BD85B54C
:1007B000826085BD85B5816085BD80916E00816058
:1007C00080936E00109281008091810082608093FE
:1007D0008100809181008160809381008091800000
:1007E0008160809380008091B10084608093B1002B
:1007F0008091B00081608093B00080917A00846025
:1008000080937A0080917A00826080937A00809150
:100810007A00816080937A0080917A00806880936A
:100820007A001092C100E8E9F0E02491E4E8F0E0F9
:100830008491882399F090E0880F991FFC01E85972
:10084000FF4FA591B491FC01EE58FF4F8591949113
:100850008FB7F894EC91E22BEC938FBF1092790153
:1008600080E00E948700E0919701F091980182E07A
:100870008083E0919301F09194011082E0919501C1
:10088000F091960180E1808310929F01E0919B019D
:10089000F0919C0186E08083E0919901F0919A01AA
:1008A000808180618083E0919901F0919A0180813B
:1008B00088608083E0919901F0919A01808180683D
:1008C0008083E0919901F0919A0180818F7D8083EE
:1008D0000E94CF0027E731E0E3E6F1E081939193B6
:1008E0002E173F07D9F781E0809378010E94ED0130
:1008F000CAE0D0E000E010E03324339487E891E0D0
:100900000E943E01181619060CF047C087E891E0D6
:100910000E941C018D3091F3E0915E018A3091F5C7
:10092000AE2FB0E0A25CBE4F1C92EE2351F06EE100
:1009300071E08EE391E00E949808892B29F40E94CF
:10094000ED0110925E01DACF61E271E08EE391E099
:100950000E949808892B41F40E94ED0130927901A0
:1009600081E00E948700EDCF6AE271E08EE391E0C2
:100970000E949808892B29F70E94ED0110927901B5
:1009800080E0EFCFEF31E8F691E09E0F90935E01AB
:10099000F0E0E25CFE4F8083B1CF2FB7F8948091F6
:1009A000830190918401A0918501B09186012FBFB0
:1009B00040915F015091600160916101709162010D
:1009C000841B950BA60BB70B813D9740A105B10584
:1009D00028F01092790180E00E9487002FB7F894E8
:1009E0008091830190918401A0918501B09186014D
:1009F0002FBF40917A0150917B0160917C017091F1
:100A00007D01841B950BA60BB70B883C9105A105B6
:100A1000B10508F49EC02FB7F8948091830190919E
:100A20008401A0918501B09186012FBF80937A0146
:100A300090937B01A0937C01B0937D010E94CF0035
:100A40002091770130E0F901EE0FFF1FED59FE4FC5
:100A500091838083C9010196BE010E942908382F25
:100A600080937701811102C0309278016091630117
:100A70007091640180917801811177C0332309F46A
:100A800076C0E3E6F1E060E070E0CB0120E0C190E9
:100A9000D1900D2C000CEE08FF086C0D7D1D8E1DF5
:100AA0009F1D2F5F3213F3CF30E050E040E00E94F3
:100AB0005F086901330FEE08FF08C701B6010E9405
:100AC00002072AE038E240EA5BE30E94B7074B01E5
:100AD0005C01AC019B010E94EE052B013C0184E30B
:100AE00091E00E9401024AE0C701B601F7FE0DC085
:100AF0006DE287E891E00E94800166277727CB01AD
:100B00006C197D098E099F094AE00E940E0288E354
:100B100091E00E94010243E0C501B4010E9452022B
:100B200088E391E00E94010243E0C301B2010E9408
:100B3000520288E391E00E940102809179018111C3
:100B40001CC080E391E00E9401028AE391E00E94D0
:100B500001020115110509F4D1CE0E944A01882332
:100B600009F4CCCE0E940000C9CE3AE08ACF072E0D
:100B7000000C880B990B21E097CF87E291E0E3CF3F
:100B8000E7E8F1E01382128288EE93E0A0E0B0E0A3
:100B900084839583A683B78384E091E091838083E7
:100BA00085EC90E09587848784EC90E09787868732
:100BB00080EC90E0918B808B81EC90E0938B828B2A
:100BC00082EC90E0958B848B86EC90E0978B868B03
:100BD000118E128E138E148E08955058BB27AA279B
:100BE0000E9405060C9478070E946A0738F00E945C
:100BF000710720F039F49F3F19F426F40C9467072D
:100C00000EF4E095E7FB0C946107E92F0E94890739
:100C100058F3BA17620773078407950720F079F431
:100C2000A6F50C94AB070EF4E0950B2EBA2FA02D71
:100C30000B01B90190010C01CA01A0011124FF2789
:100C4000591B99F0593F50F4503E68F11A16F04084
:100C5000A22F232F342F4427585FF3CF4695379583
:100C60002795A795F0405395C9F77EF41F16BA0B48
:100C7000620B730B840BBAF09150A1F0FF0FBB1FF6
:100C8000661F771F881FC2F70EC0BA0F621F731F3F
:100C9000841F48F4879577956795B795F7959E3F9C
:100CA00008F0B0CF9395880F08F09927EE0F97952D
:100CB000879508950E943D0708F481E008950E94F9
:100CC00073060C9478070E94710758F00E946A0717
:100CD00040F029F45F3F29F00C94610751110C9406
:100CE000AC070C9467070E94890768F39923B1F356
:100CF000552391F3951B550BBB27AA276217730742
:100D0000840738F09F5F5F4F220F331F441FAA1FD5
:100D1000A9F335D00E2E3AF0E0E832D09150504091
:100D2000E695001CCAF72BD0FE2F29D0660F771F3F
:100D3000881FBB1F261737074807AB07B0E809F025
:100D4000BB0B802DBF01FF2793585F4F3AF09E3FAA
:100D5000510578F00C9461070C94AC075F3FE4F305
:100D6000983ED4F3869577956795B795F7959F5FED
:100D7000C9F7880F911D9695879597F90895E1E039
:100D8000660F771F881FBB1F621773078407BA0798
:100D900020F0621B730B840BBA0BEE1F88F7E095F3
:100DA00008950E94910788F09F5798F0B92F9927CE
:100DB000B751B0F0E1F0660F771F881F991F1AF046
:100DC000BA95C9F714C0B13091F00E94AB07B1E0F9
:100DD00008950C94AB07672F782F8827B85F39F0F8
:100DE000B93FCCF3869577956795B395D9F73EF4DF
:100DF00090958095709561957F4F8F4F9F4F089587
:100E0000E89409C097FB3EF49095809570956195A4
:100E10007F4F8F4F9F4F9923A9F0F92F96E9BB275A
:100E20009395F695879577956795B795F111F8CFD6
:100E3000FAF4BB0F11F460FF1BC06F5F7F4F8F4F41
:100E40009F4F16C0882311F096E911C0772321F037
:100E50009EE8872F762F05C0662371F096E8862FCF
:100E600070E060E02AF09A95660F771F881FDAF726
:100E7000880F9695879597F90895990F0008550F53
:100E8000AA0BE0E8FEEF16161706E807F907C0F010
:100E900012161306E407F50798F0621B730B840B18
:100EA000950B39F40A2661F0232B242B252B21F4F2
:100EB00008950A2609F4A140A6958FEF811D811D92
:100EC000089597F99F6780E870E060E008959FEFCC
:100ED00080EC089500240A941616170618060906D1
:100EE000089500240A9412161306140605060895A0
:100EF000092E0394000C11F4882352F0BB0F40F428
:100F0000BF2B11F460FF04C06F5F7F4F8F4F9F4F67
:100F1000089557FD9058440F551F59F05F3F71F0E9
:100F20004795880F97FB991F61F09F3F79F0879550
:100F30000895121613061406551FF2CF4695F1DFD9
:100F400008C0161617061806991FF1CF8695710569
:100F5000610508940895E894BB2766277727CB019D
:100F600097F908950E943D0708F48FEF08950E94B5
:100F7000CA070C9478070E946A0738F00E9471072C
:100F800020F0952311F00C9461070C94670711244D
:100F90000C94AC070E94890770F3959FC1F3950FDD
:100FA00050E0551F629FF001729FBB27F00DB11DED
:100FB000639FAA27F00DB11DAA1F649F6627B00D7D
:100FC000A11D661F829F2227B00DA11D621F739F66
:100FD000B00DA11D621F839FA00D611D221F749F74
:100FE0003327A00D611D231F849F600D211D822FBB
:100FF000762F6A2F11249F5750409AF0F1F08823E2
:101000004AF0EE0FFF1FBB1F661F771F881F91500E
:101010005040A9F79E3F510580F00C9461070C9455
:10102000AC075F3FE4F3983ED4F3869577956795D8
:10103000B795F795E7959F5FC1F7FE2B880F911D38
:101040009695879597F908950E943D07880B990B0F
:10105000089597FB072E16F4009407D077FD09D06A
:101060000E947E0807FC05D03EF4909581959F4F25
:101070000895709561957F4F0895A1E21A2EAA1BDD
:10108000BB1BFD010DC0AA1FBB1FEE1FFF1FA21738
:10109000B307E407F50720F0A21BB30BE40BF50B35
:1010A000661F771F881F991F1A9469F760957095BE
:1010B000809590959B01AC01BD01CF010895052E4F
:1010C00097FB1EF400940E94760857FD07D00E94FB
:1010D0003D0807FC03D04EF40C94760850954095DB
:1010E000309521953F4F4F4F5F4F089590958095D4
:1010F000709561957F4F8F4F9F4F0895AA1BBB1B23
:1011000051E107C0AA1FBB1FA617B70710F0A61B07
:10111000B70B881F991F5A95A9F780959095BC0128
:10112000CD010895EE0FFF1F0590F491E02D099475
:10113000FB01DC018D91019080190110D9F3990B0D
:061140000895F894FFCFB2
:10114600000000008001E0000D01CD013E011C0100
:1011560030016E616E00696E66006F766600484209
:101166000052454C41592C4F4E0052454C41592C8A
:0E1176004F464600444154412C000D0A000033
:00000001FF
